{
  "_format": "hh-sol-artifact-1",
  "contractName": "CrowdFund",
  "sourceName": "contracts/CrowdFund.sol",
  "abi": [
    {
      "inputs": [
        {
          "internalType": "uint256",
          "name": "_listCharge",
          "type": "uint256"
        },
        {
          "internalType": "address",
          "name": "_nftMarketAddress",
          "type": "address"
        },
        {
          "internalType": "address",
          "name": "_erc20TokenAddress",
          "type": "address"
        }
      ],
      "stateMutability": "nonpayable",
      "type": "constructor"
    },
    {
      "inputs": [
        {
          "internalType": "uint256",
          "name": "_amt",
          "type": "uint256"
        }
      ],
      "name": "changeListCharge",
      "outputs": [],
      "stateMutability": "nonpayable",
      "type": "function"
    },
    {
      "inputs": [
        {
          "internalType": "uint256",
          "name": "_id",
          "type": "uint256"
        },
        {
          "internalType": "string",
          "name": "_name",
          "type": "string"
        },
        {
          "internalType": "string",
          "name": "uri",
          "type": "string"
        },
        {
          "internalType": "uint256",
          "name": "option",
          "type": "uint256"
        }
      ],
      "name": "contribute",
      "outputs": [],
      "stateMutability": "payable",
      "type": "function"
    },
    {
      "inputs": [
        {
          "internalType": "address",
          "name": "",
          "type": "address"
        }
      ],
      "name": "contributors",
      "outputs": [
        {
          "internalType": "string",
          "name": "name",
          "type": "string"
        },
        {
          "internalType": "uint256",
          "name": "value",
          "type": "uint256"
        },
        {
          "internalType": "bool",
          "name": "isNftMinted",
          "type": "bool"
        },
        {
          "internalType": "bool",
          "name": "isTokenMinted",
          "type": "bool"
        }
      ],
      "stateMutability": "view",
      "type": "function"
    },
    {
      "inputs": [
        {
          "internalType": "string",
          "name": "_title",
          "type": "string"
        },
        {
          "internalType": "uint256",
          "name": "_value",
          "type": "uint256"
        },
        {
          "internalType": "uint256",
          "name": "_minCont",
          "type": "uint256"
        },
        {
          "internalType": "address payable",
          "name": "_res",
          "type": "address"
        }
      ],
      "name": "createProject",
      "outputs": [],
      "stateMutability": "payable",
      "type": "function"
    },
    {
      "inputs": [],
      "name": "erc20Token",
      "outputs": [
        {
          "internalType": "contract ERC20Token",
          "name": "",
          "type": "address"
        }
      ],
      "stateMutability": "view",
      "type": "function"
    },
    {
      "inputs": [],
      "name": "getProjectId",
      "outputs": [
        {
          "internalType": "uint256",
          "name": "",
          "type": "uint256"
        }
      ],
      "stateMutability": "view",
      "type": "function"
    },
    {
      "inputs": [],
      "name": "nftMarket",
      "outputs": [
        {
          "internalType": "contract NftMarket",
          "name": "",
          "type": "address"
        }
      ],
      "stateMutability": "view",
      "type": "function"
    },
    {
      "inputs": [],
      "name": "owner",
      "outputs": [
        {
          "internalType": "address",
          "name": "",
          "type": "address"
        }
      ],
      "stateMutability": "view",
      "type": "function"
    },
    {
      "inputs": [],
      "name": "projectId",
      "outputs": [
        {
          "internalType": "uint256",
          "name": "",
          "type": "uint256"
        }
      ],
      "stateMutability": "view",
      "type": "function"
    },
    {
      "inputs": [
        {
          "internalType": "uint256",
          "name": "",
          "type": "uint256"
        }
      ],
      "name": "projects",
      "outputs": [
        {
          "internalType": "string",
          "name": "title",
          "type": "string"
        },
        {
          "internalType": "uint256",
          "name": "value",
          "type": "uint256"
        },
        {
          "internalType": "uint256",
          "name": "collectedValue",
          "type": "uint256"
        },
        {
          "internalType": "uint256",
          "name": "minimumContribution",
          "type": "uint256"
        },
        {
          "internalType": "address payable",
          "name": "recipient",
          "type": "address"
        },
        {
          "internalType": "bool",
          "name": "isCompleted",
          "type": "bool"
        },
        {
          "internalType": "uint256",
          "name": "contributorsCount",
          "type": "uint256"
        },
        {
          "internalType": "uint256",
          "name": "projectId",
          "type": "uint256"
        }
      ],
      "stateMutability": "view",
      "type": "function"
    },
    {
      "inputs": [],
      "name": "sendFund",
      "outputs": [],
      "stateMutability": "nonpayable",
      "type": "function"
    }
  ],
  "bytecode": "0x60806040523480156200001157600080fd5b5060405162001a6738038062001a678339818101604052810190620000379190620001ae565b82600281905550336000806101000a81548173ffffffffffffffffffffffffffffffffffffffff021916908373ffffffffffffffffffffffffffffffffffffffff16021790555081600560006101000a81548173ffffffffffffffffffffffffffffffffffffffff021916908373ffffffffffffffffffffffffffffffffffffffff16021790555080600660006101000a81548173ffffffffffffffffffffffffffffffffffffffff021916908373ffffffffffffffffffffffffffffffffffffffff1602179055505050506200020a565b600080fd5b6000819050919050565b62000123816200010e565b81146200012f57600080fd5b50565b600081519050620001438162000118565b92915050565b600073ffffffffffffffffffffffffffffffffffffffff82169050919050565b6000620001768262000149565b9050919050565b620001888162000169565b81146200019457600080fd5b50565b600081519050620001a8816200017d565b92915050565b600080600060608486031215620001ca57620001c962000109565b5b6000620001da8682870162000132565b9350506020620001ed8682870162000197565b9250506040620002008682870162000197565b9150509250925092565b61184d806200021a6000396000f3fe60806040526004361061009c5760003560e01c80633316173b116100645780633316173b146101a45780633e53ac55146101c05780633fafa127146101dc5780638a13eea7146102075780638da5cb5b14610232578063dd0cf15d1461025d5761009c565b8063107046bd146100a15780631270e10c146100e5578063196ab1ab146101105780631aed90fe1461013b5780631f6d494214610164575b600080fd5b3480156100ad57600080fd5b506100c860048036038101906100c39190610b79565b610274565b6040516100dc989796959493929190610ca1565b60405180910390f35b3480156100f157600080fd5b506100fa610371565b6040516101079190610d26565b60405180910390f35b34801561011c57600080fd5b5061012561037b565b6040516101329190610da0565b60405180910390f35b34801561014757600080fd5b50610162600480360381019061015d9190610b79565b6103a1565b005b34801561017057600080fd5b5061018b60048036038101906101869190610df9565b610439565b60405161019b9493929190610e26565b60405180910390f35b6101be60048036038101906101b99190610fa7565b61050b565b005b6101da60048036038101906101d59190611072565b610975565b005b3480156101e857600080fd5b506101f1610a45565b6040516101fe9190610d26565b60405180910390f35b34801561021357600080fd5b5061021c610a4b565b6040516102299190611116565b60405180910390f35b34801561023e57600080fd5b50610247610a71565b6040516102549190611140565b60405180910390f35b34801561026957600080fd5b50610272610a95565b005b60036020528060005260406000206000915090508060000180546102979061118a565b80601f01602080910402602001604051908101604052809291908181526020018280546102c39061118a565b80156103105780601f106102e557610100808354040283529160200191610310565b820191906000526020600020905b8154815290600101906020018083116102f357829003601f168201915b5050505050908060010154908060020154908060030154908060040160009054906101000a900473ffffffffffffffffffffffffffffffffffffffff16908060040160149054906101000a900460ff16908060050154908060060154905088565b6000600154905090565b600560009054906101000a900473ffffffffffffffffffffffffffffffffffffffff1681565b60008054906101000a900473ffffffffffffffffffffffffffffffffffffffff1673ffffffffffffffffffffffffffffffffffffffff163373ffffffffffffffffffffffffffffffffffffffff161461042f576040517f08c379a000000000000000000000000000000000000000000000000000000000815260040161042690611207565b60405180910390fd5b8060028190555050565b600460205280600052604060002060009150905080600001805461045c9061118a565b80601f01602080910402602001604051908101604052809291908181526020018280546104889061118a565b80156104d55780601f106104aa576101008083540402835291602001916104d5565b820191906000526020600020905b8154815290600101906020018083116104b857829003601f168201915b5050505050908060010154908060020160009054906101000a900460ff16908060020160019054906101000a900460ff16905084565b60006003600086815260200190815260200160002090506000600460003373ffffffffffffffffffffffffffffffffffffffff1673ffffffffffffffffffffffffffffffffffffffff168152602001908152602001600020905081600301543410156105ac576040517f08c379a00000000000000000000000000000000000000000000000000000000081526004016105a3906112bf565b60405180910390fd5b81600101543483600201546105c1919061130e565b1115610602576040517f08c379a00000000000000000000000000000000000000000000000000000000081526004016105f99061138e565b60405180910390fd5b8160040160149054906101000a900460ff161561061e57600080fd5b8481600001908161062f9190611550565b5034816001018190555060008160020160006101000a81548160ff02191690831515021790555060008160020160016101000a81548160ff02191690831515021790555034826002016000828254610687919061130e565b9250508190555060018260050160008282546106a3919061130e565b9250508190555081600101548260020154036107ac5760008260040160009054906101000a900473ffffffffffffffffffffffffffffffffffffffff1673ffffffffffffffffffffffffffffffffffffffff16836001015460405161070790611653565b60006040518083038185875af1925050503d8060008114610744576040519150601f19603f3d011682016040523d82523d6000602084013e610749565b606091505b505090508061078d576040517f08c379a0000000000000000000000000000000000000000000000000000000008152600401610784906116b4565b60405180910390fd5b60018360040160146101000a81548160ff021916908315150217905550505b6001831480156107cb57508060020160009054906101000a900460ff16155b1561087d57600560009054906101000a900473ffffffffffffffffffffffffffffffffffffffff1673ffffffffffffffffffffffffffffffffffffffff1663d204c45e33866040518363ffffffff1660e01b815260040161082d9291906116d4565b600060405180830381600087803b15801561084757600080fd5b505af115801561085b573d6000803e3d6000fd5b5050505060018160020160006101000a81548160ff0219169083151502179055505b60008314801561089c57508060020160019054906101000a900460ff16155b1561096d57600660009054906101000a900473ffffffffffffffffffffffffffffffffffffffff1673ffffffffffffffffffffffffffffffffffffffff166340c10f19336032670de0b6b3a7640000346108f69190611733565b6109009190611764565b6040518363ffffffff1660e01b815260040161091d9291906117a6565b600060405180830381600087803b15801561093757600080fd5b505af115801561094b573d6000803e3d6000fd5b5050505060018160020160016101000a81548160ff0219169083151502179055505b505050505050565b60016000815480929190610988906117cf565b919050555060006003600060015481526020019081526020016000209050848160000190816109b79190611550565b50670de0b6b3a7640000846109cc9190611764565b8160010181905550670de0b6b3a7640000836109e89190611764565b8160030181905550818160040160006101000a81548173ffffffffffffffffffffffffffffffffffffffff021916908373ffffffffffffffffffffffffffffffffffffffff16021790555060015481600601819055505050505050565b60015481565b600660009054906101000a900473ffffffffffffffffffffffffffffffffffffffff1681565b60008054906101000a900473ffffffffffffffffffffffffffffffffffffffff1681565b60008060009054906101000a900473ffffffffffffffffffffffffffffffffffffffff1673ffffffffffffffffffffffffffffffffffffffff1647604051610adc90611653565b60006040518083038185875af1925050503d8060008114610b19576040519150601f19603f3d011682016040523d82523d6000602084013e610b1e565b606091505b5050905080610b2c57600080fd5b50565b6000604051905090565b600080fd5b600080fd5b6000819050919050565b610b5681610b43565b8114610b6157600080fd5b50565b600081359050610b7381610b4d565b92915050565b600060208284031215610b8f57610b8e610b39565b5b6000610b9d84828501610b64565b91505092915050565b600081519050919050565b600082825260208201905092915050565b60005b83811015610be0578082015181840152602081019050610bc5565b60008484015250505050565b6000601f19601f8301169050919050565b6000610c0882610ba6565b610c128185610bb1565b9350610c22818560208601610bc2565b610c2b81610bec565b840191505092915050565b610c3f81610b43565b82525050565b600073ffffffffffffffffffffffffffffffffffffffff82169050919050565b6000610c7082610c45565b9050919050565b610c8081610c65565b82525050565b60008115159050919050565b610c9b81610c86565b82525050565b6000610100820190508181036000830152610cbc818b610bfd565b9050610ccb602083018a610c36565b610cd86040830189610c36565b610ce56060830188610c36565b610cf26080830187610c77565b610cff60a0830186610c92565b610d0c60c0830185610c36565b610d1960e0830184610c36565b9998505050505050505050565b6000602082019050610d3b6000830184610c36565b92915050565b6000819050919050565b6000610d66610d61610d5c84610c45565b610d41565b610c45565b9050919050565b6000610d7882610d4b565b9050919050565b6000610d8a82610d6d565b9050919050565b610d9a81610d7f565b82525050565b6000602082019050610db56000830184610d91565b92915050565b6000610dc682610c45565b9050919050565b610dd681610dbb565b8114610de157600080fd5b50565b600081359050610df381610dcd565b92915050565b600060208284031215610e0f57610e0e610b39565b5b6000610e1d84828501610de4565b91505092915050565b60006080820190508181036000830152610e408187610bfd565b9050610e4f6020830186610c36565b610e5c6040830185610c92565b610e696060830184610c92565b95945050505050565b600080fd5b600080fd5b7f4e487b7100000000000000000000000000000000000000000000000000000000600052604160045260246000fd5b610eb482610bec565b810181811067ffffffffffffffff82111715610ed357610ed2610e7c565b5b80604052505050565b6000610ee6610b2f565b9050610ef28282610eab565b919050565b600067ffffffffffffffff821115610f1257610f11610e7c565b5b610f1b82610bec565b9050602081019050919050565b82818337600083830152505050565b6000610f4a610f4584610ef7565b610edc565b905082815260208101848484011115610f6657610f65610e77565b5b610f71848285610f28565b509392505050565b600082601f830112610f8e57610f8d610e72565b5b8135610f9e848260208601610f37565b91505092915050565b60008060008060808587031215610fc157610fc0610b39565b5b6000610fcf87828801610b64565b945050602085013567ffffffffffffffff811115610ff057610fef610b3e565b5b610ffc87828801610f79565b935050604085013567ffffffffffffffff81111561101d5761101c610b3e565b5b61102987828801610f79565b925050606061103a87828801610b64565b91505092959194509250565b61104f81610c65565b811461105a57600080fd5b50565b60008135905061106c81611046565b92915050565b6000806000806080858703121561108c5761108b610b39565b5b600085013567ffffffffffffffff8111156110aa576110a9610b3e565b5b6110b687828801610f79565b94505060206110c787828801610b64565b93505060406110d887828801610b64565b92505060606110e98782880161105d565b91505092959194509250565b600061110082610d6d565b9050919050565b611110816110f5565b82525050565b600060208201905061112b6000830184611107565b92915050565b61113a81610dbb565b82525050565b60006020820190506111556000830184611131565b92915050565b7f4e487b7100000000000000000000000000000000000000000000000000000000600052602260045260246000fd5b600060028204905060018216806111a257607f821691505b6020821081036111b5576111b461115b565b5b50919050565b7f4f6e6c79206f776e657220697320616c6c6f7765642e00000000000000000000600082015250565b60006111f1601683610bb1565b91506111fc826111bb565b602082019050919050565b60006020820190508181036000830152611220816111e4565b9050919050565b7f436f6e747269627574696f6e2073686f756c642062652067726561746572207460008201527f68616e206f7220657175616c20746f20746865206d696e696d756d20636f6e7460208201527f7269627574696f6e000000000000000000000000000000000000000000000000604082015250565b60006112a9604883610bb1565b91506112b482611227565b606082019050919050565b600060208201905081810360008301526112d88161129c565b9050919050565b7f4e487b7100000000000000000000000000000000000000000000000000000000600052601160045260246000fd5b600061131982610b43565b915061132483610b43565b925082820190508082111561133c5761133b6112df565b5b92915050565b7f4d6f72652066756e6473207468616e206e656564656400000000000000000000600082015250565b6000611378601683610bb1565b915061138382611342565b602082019050919050565b600060208201905081810360008301526113a78161136b565b9050919050565b60008190508160005260206000209050919050565b60006020601f8301049050919050565b600082821b905092915050565b6000600883026114107fffffffffffffffffffffffffffffffffffffffffffffffffffffffffffffffff826113d3565b61141a86836113d3565b95508019841693508086168417925050509392505050565b600061144d61144861144384610b43565b610d41565b610b43565b9050919050565b6000819050919050565b61146783611432565b61147b61147382611454565b8484546113e0565b825550505050565b600090565b611490611483565b61149b81848461145e565b505050565b5b818110156114bf576114b4600082611488565b6001810190506114a1565b5050565b601f821115611504576114d5816113ae565b6114de846113c3565b810160208510156114ed578190505b6115016114f9856113c3565b8301826114a0565b50505b505050565b600082821c905092915050565b600061152760001984600802611509565b1980831691505092915050565b60006115408383611516565b9150826002028217905092915050565b61155982610ba6565b67ffffffffffffffff81111561157257611571610e7c565b5b61157c825461118a565b6115878282856114c3565b600060209050601f8311600181146115ba57600084156115a8578287015190505b6115b28582611534565b86555061161a565b601f1984166115c8866113ae565b60005b828110156115f0578489015182556001820191506020850194506020810190506115cb565b8683101561160d5784890151611609601f891682611516565b8355505b6001600288020188555050505b505050505050565b600081905092915050565b50565b600061163d600083611622565b91506116488261162d565b600082019050919050565b600061165e82611630565b9150819050919050565b7f526563697069656e74207472616e73666572206661696c656400000000000000600082015250565b600061169e601983610bb1565b91506116a982611668565b602082019050919050565b600060208201905081810360008301526116cd81611691565b9050919050565b60006040820190506116e96000830185611131565b81810360208301526116fb8184610bfd565b90509392505050565b7f4e487b7100000000000000000000000000000000000000000000000000000000600052601260045260246000fd5b600061173e82610b43565b915061174983610b43565b92508261175957611758611704565b5b828204905092915050565b600061176f82610b43565b915061177a83610b43565b925082820261178881610b43565b9150828204841483151761179f5761179e6112df565b5b5092915050565b60006040820190506117bb6000830185611131565b6117c86020830184610c36565b9392505050565b60006117da82610b43565b91507fffffffffffffffffffffffffffffffffffffffffffffffffffffffffffffffff820361180c5761180b6112df565b5b60018201905091905056fea2646970667358221220d5593f5af02513942ff755429a8d7930eb6e46fe04ba406b9c35faeea2d5554164736f6c63430008140033",
  "linkReferences": {},
  "deployedLinkReferences": {}
}