{
  "_format": "hh-sol-artifact-1",
  "contractName": "NftMarket",
  "sourceName": "contracts/CrowdFund.sol",
  "abi": [
    {
      "inputs": [],
      "stateMutability": "nonpayable",
      "type": "constructor"
    },
    {
      "inputs": [
        {
          "internalType": "address",
          "name": "sender",
          "type": "address"
        },
        {
          "internalType": "uint256",
          "name": "tokenId",
          "type": "uint256"
        },
        {
          "internalType": "address",
          "name": "owner",
          "type": "address"
        }
      ],
      "name": "ERC721IncorrectOwner",
      "type": "error"
    },
    {
      "inputs": [
        {
          "internalType": "address",
          "name": "operator",
          "type": "address"
        },
        {
          "internalType": "uint256",
          "name": "tokenId",
          "type": "uint256"
        }
      ],
      "name": "ERC721InsufficientApproval",
      "type": "error"
    },
    {
      "inputs": [
        {
          "internalType": "address",
          "name": "approver",
          "type": "address"
        }
      ],
      "name": "ERC721InvalidApprover",
      "type": "error"
    },
    {
      "inputs": [
        {
          "internalType": "address",
          "name": "operator",
          "type": "address"
        }
      ],
      "name": "ERC721InvalidOperator",
      "type": "error"
    },
    {
      "inputs": [
        {
          "internalType": "address",
          "name": "owner",
          "type": "address"
        }
      ],
      "name": "ERC721InvalidOwner",
      "type": "error"
    },
    {
      "inputs": [
        {
          "internalType": "address",
          "name": "receiver",
          "type": "address"
        }
      ],
      "name": "ERC721InvalidReceiver",
      "type": "error"
    },
    {
      "inputs": [
        {
          "internalType": "address",
          "name": "sender",
          "type": "address"
        }
      ],
      "name": "ERC721InvalidSender",
      "type": "error"
    },
    {
      "inputs": [
        {
          "internalType": "uint256",
          "name": "tokenId",
          "type": "uint256"
        }
      ],
      "name": "ERC721NonexistentToken",
      "type": "error"
    },
    {
      "anonymous": false,
      "inputs": [
        {
          "indexed": true,
          "internalType": "address",
          "name": "owner",
          "type": "address"
        },
        {
          "indexed": true,
          "internalType": "address",
          "name": "approved",
          "type": "address"
        },
        {
          "indexed": true,
          "internalType": "uint256",
          "name": "tokenId",
          "type": "uint256"
        }
      ],
      "name": "Approval",
      "type": "event"
    },
    {
      "anonymous": false,
      "inputs": [
        {
          "indexed": true,
          "internalType": "address",
          "name": "owner",
          "type": "address"
        },
        {
          "indexed": true,
          "internalType": "address",
          "name": "operator",
          "type": "address"
        },
        {
          "indexed": false,
          "internalType": "bool",
          "name": "approved",
          "type": "bool"
        }
      ],
      "name": "ApprovalForAll",
      "type": "event"
    },
    {
      "anonymous": false,
      "inputs": [
        {
          "indexed": false,
          "internalType": "uint256",
          "name": "_fromTokenId",
          "type": "uint256"
        },
        {
          "indexed": false,
          "internalType": "uint256",
          "name": "_toTokenId",
          "type": "uint256"
        }
      ],
      "name": "BatchMetadataUpdate",
      "type": "event"
    },
    {
      "anonymous": false,
      "inputs": [
        {
          "indexed": false,
          "internalType": "uint256",
          "name": "_tokenId",
          "type": "uint256"
        }
      ],
      "name": "MetadataUpdate",
      "type": "event"
    },
    {
      "anonymous": false,
      "inputs": [
        {
          "indexed": true,
          "internalType": "address",
          "name": "from",
          "type": "address"
        },
        {
          "indexed": true,
          "internalType": "address",
          "name": "to",
          "type": "address"
        },
        {
          "indexed": true,
          "internalType": "uint256",
          "name": "tokenId",
          "type": "uint256"
        }
      ],
      "name": "Transfer",
      "type": "event"
    },
    {
      "inputs": [
        {
          "internalType": "address",
          "name": "to",
          "type": "address"
        },
        {
          "internalType": "uint256",
          "name": "tokenId",
          "type": "uint256"
        }
      ],
      "name": "approve",
      "outputs": [],
      "stateMutability": "nonpayable",
      "type": "function"
    },
    {
      "inputs": [
        {
          "internalType": "address",
          "name": "owner",
          "type": "address"
        }
      ],
      "name": "balanceOf",
      "outputs": [
        {
          "internalType": "uint256",
          "name": "",
          "type": "uint256"
        }
      ],
      "stateMutability": "view",
      "type": "function"
    },
    {
      "inputs": [
        {
          "internalType": "uint256",
          "name": "tokenId",
          "type": "uint256"
        }
      ],
      "name": "getApproved",
      "outputs": [
        {
          "internalType": "address",
          "name": "",
          "type": "address"
        }
      ],
      "stateMutability": "view",
      "type": "function"
    },
    {
      "inputs": [
        {
          "internalType": "address",
          "name": "owner",
          "type": "address"
        },
        {
          "internalType": "address",
          "name": "operator",
          "type": "address"
        }
      ],
      "name": "isApprovedForAll",
      "outputs": [
        {
          "internalType": "bool",
          "name": "",
          "type": "bool"
        }
      ],
      "stateMutability": "view",
      "type": "function"
    },
    {
      "inputs": [],
      "name": "name",
      "outputs": [
        {
          "internalType": "string",
          "name": "",
          "type": "string"
        }
      ],
      "stateMutability": "view",
      "type": "function"
    },
    {
      "inputs": [
        {
          "internalType": "uint256",
          "name": "tokenId",
          "type": "uint256"
        }
      ],
      "name": "ownerOf",
      "outputs": [
        {
          "internalType": "address",
          "name": "",
          "type": "address"
        }
      ],
      "stateMutability": "view",
      "type": "function"
    },
    {
      "inputs": [
        {
          "internalType": "address",
          "name": "to",
          "type": "address"
        },
        {
          "internalType": "string",
          "name": "uri",
          "type": "string"
        }
      ],
      "name": "safeMint",
      "outputs": [],
      "stateMutability": "payable",
      "type": "function"
    },
    {
      "inputs": [
        {
          "internalType": "address",
          "name": "from",
          "type": "address"
        },
        {
          "internalType": "address",
          "name": "to",
          "type": "address"
        },
        {
          "internalType": "uint256",
          "name": "tokenId",
          "type": "uint256"
        }
      ],
      "name": "safeTransferFrom",
      "outputs": [],
      "stateMutability": "nonpayable",
      "type": "function"
    },
    {
      "inputs": [
        {
          "internalType": "address",
          "name": "from",
          "type": "address"
        },
        {
          "internalType": "address",
          "name": "to",
          "type": "address"
        },
        {
          "internalType": "uint256",
          "name": "tokenId",
          "type": "uint256"
        },
        {
          "internalType": "bytes",
          "name": "data",
          "type": "bytes"
        }
      ],
      "name": "safeTransferFrom",
      "outputs": [],
      "stateMutability": "nonpayable",
      "type": "function"
    },
    {
      "inputs": [
        {
          "internalType": "address",
          "name": "operator",
          "type": "address"
        },
        {
          "internalType": "bool",
          "name": "approved",
          "type": "bool"
        }
      ],
      "name": "setApprovalForAll",
      "outputs": [],
      "stateMutability": "nonpayable",
      "type": "function"
    },
    {
      "inputs": [
        {
          "internalType": "bytes4",
          "name": "interfaceId",
          "type": "bytes4"
        }
      ],
      "name": "supportsInterface",
      "outputs": [
        {
          "internalType": "bool",
          "name": "",
          "type": "bool"
        }
      ],
      "stateMutability": "view",
      "type": "function"
    },
    {
      "inputs": [],
      "name": "symbol",
      "outputs": [
        {
          "internalType": "string",
          "name": "",
          "type": "string"
        }
      ],
      "stateMutability": "view",
      "type": "function"
    },
    {
      "inputs": [
        {
          "internalType": "uint256",
          "name": "tokenId",
          "type": "uint256"
        }
      ],
      "name": "tokenURI",
      "outputs": [
        {
          "internalType": "string",
          "name": "",
          "type": "string"
        }
      ],
      "stateMutability": "view",
      "type": "function"
    },
    {
      "inputs": [
        {
          "internalType": "address",
          "name": "from",
          "type": "address"
        },
        {
          "internalType": "address",
          "name": "to",
          "type": "address"
        },
        {
          "internalType": "uint256",
          "name": "tokenId",
          "type": "uint256"
        }
      ],
      "name": "transferFrom",
      "outputs": [],
      "stateMutability": "nonpayable",
      "type": "function"
    }
  ],
  "bytecode": "0x60806040523480156200001157600080fd5b506040518060400160405280600581526020017f4865786e6f0000000000000000000000000000000000000000000000000000008152506040518060400160405280600281526020017f484100000000000000000000000000000000000000000000000000000000000081525081600090816200008f91906200032c565b508060019081620000a191906200032c565b505050600060078190555062000413565b600081519050919050565b7f4e487b7100000000000000000000000000000000000000000000000000000000600052604160045260246000fd5b7f4e487b7100000000000000000000000000000000000000000000000000000000600052602260045260246000fd5b600060028204905060018216806200013457607f821691505b6020821081036200014a5762000149620000ec565b5b50919050565b60008190508160005260206000209050919050565b60006020601f8301049050919050565b600082821b905092915050565b600060088302620001b47fffffffffffffffffffffffffffffffffffffffffffffffffffffffffffffffff8262000175565b620001c0868362000175565b95508019841693508086168417925050509392505050565b6000819050919050565b6000819050919050565b60006200020d620002076200020184620001d8565b620001e2565b620001d8565b9050919050565b6000819050919050565b6200022983620001ec565b62000241620002388262000214565b84845462000182565b825550505050565b600090565b6200025862000249565b620002658184846200021e565b505050565b5b818110156200028d57620002816000826200024e565b6001810190506200026b565b5050565b601f821115620002dc57620002a68162000150565b620002b18462000165565b81016020851015620002c1578190505b620002d9620002d08562000165565b8301826200026a565b50505b505050565b600082821c905092915050565b60006200030160001984600802620002e1565b1980831691505092915050565b60006200031c8383620002ee565b9150826002028217905092915050565b6200033782620000b2565b67ffffffffffffffff811115620003535762000352620000bd565b5b6200035f82546200011b565b6200036c82828562000291565b600060209050601f831160018114620003a457600084156200038f578287015190505b6200039b85826200030e565b8655506200040b565b601f198416620003b48662000150565b60005b82811015620003de57848901518255600182019150602085019450602081019050620003b7565b86831015620003fe5784890151620003fa601f891682620002ee565b8355505b6001600288020188555050505b505050505050565b61249c80620004236000396000f3fe6080604052600436106100dd5760003560e01c806370a082311161007f578063b88d4fde11610059578063b88d4fde146102d0578063c87b56dd146102f9578063d204c45e14610336578063e985e9c514610352576100dd565b806370a082311461023f57806395d89b411461027c578063a22cb465146102a7576100dd565b8063095ea7b3116100bb578063095ea7b31461018757806323b872dd146101b057806342842e0e146101d95780636352211e14610202576100dd565b806301ffc9a7146100e257806306fdde031461011f578063081812fc1461014a575b600080fd5b3480156100ee57600080fd5b50610109600480360381019061010491906118f4565b61038f565b604051610116919061193c565b60405180910390f35b34801561012b57600080fd5b506101346103a1565b60405161014191906119e7565b60405180910390f35b34801561015657600080fd5b50610171600480360381019061016c9190611a3f565b610433565b60405161017e9190611aad565b60405180910390f35b34801561019357600080fd5b506101ae60048036038101906101a99190611af4565b61044f565b005b3480156101bc57600080fd5b506101d760048036038101906101d29190611b34565b610465565b005b3480156101e557600080fd5b5061020060048036038101906101fb9190611b34565b610567565b005b34801561020e57600080fd5b5061022960048036038101906102249190611a3f565b610587565b6040516102369190611aad565b60405180910390f35b34801561024b57600080fd5b5061026660048036038101906102619190611b87565b610599565b6040516102739190611bc3565b60405180910390f35b34801561028857600080fd5b50610291610653565b60405161029e91906119e7565b60405180910390f35b3480156102b357600080fd5b506102ce60048036038101906102c99190611c0a565b6106e5565b005b3480156102dc57600080fd5b506102f760048036038101906102f29190611d7f565b6106fb565b005b34801561030557600080fd5b50610320600480360381019061031b9190611a3f565b610718565b60405161032d91906119e7565b60405180910390f35b610350600480360381019061034b9190611ea3565b61072a565b005b34801561035e57600080fd5b5061037960048036038101906103749190611eff565b61075e565b604051610386919061193c565b60405180910390f35b600061039a826107f2565b9050919050565b6060600080546103b090611f6e565b80601f01602080910402602001604051908101604052809291908181526020018280546103dc90611f6e565b80156104295780601f106103fe57610100808354040283529160200191610429565b820191906000526020600020905b81548152906001019060200180831161040c57829003601f168201915b5050505050905090565b600061043e82610853565b50610448826108db565b9050919050565b610461828261045c610918565b610920565b5050565b600073ffffffffffffffffffffffffffffffffffffffff168273ffffffffffffffffffffffffffffffffffffffff16036104d75760006040517f64a0ae920000000000000000000000000000000000000000000000000000000081526004016104ce9190611aad565b60405180910390fd5b60006104eb83836104e6610918565b610932565b90508373ffffffffffffffffffffffffffffffffffffffff168173ffffffffffffffffffffffffffffffffffffffff1614610561578382826040517f64283d7b00000000000000000000000000000000000000000000000000000000815260040161055893929190611f9f565b60405180910390fd5b50505050565b610582838383604051806020016040528060008152506106fb565b505050565b600061059282610853565b9050919050565b60008073ffffffffffffffffffffffffffffffffffffffff168273ffffffffffffffffffffffffffffffffffffffff160361060c5760006040517f89c62b640000000000000000000000000000000000000000000000000000000081526004016106039190611aad565b60405180910390fd5b600360008373ffffffffffffffffffffffffffffffffffffffff1673ffffffffffffffffffffffffffffffffffffffff168152602001908152602001600020549050919050565b60606001805461066290611f6e565b80601f016020809104026020016040519081016040528092919081815260200182805461068e90611f6e565b80156106db5780601f106106b0576101008083540402835291602001916106db565b820191906000526020600020905b8154815290600101906020018083116106be57829003601f168201915b5050505050905090565b6106f76106f0610918565b8383610b4c565b5050565b610706848484610465565b61071284848484610cbb565b50505050565b606061072382610e72565b9050919050565b60006007600081548092919061073f90612005565b91905055905061074f8382610f85565b6107598183610fa3565b505050565b6000600560008473ffffffffffffffffffffffffffffffffffffffff1673ffffffffffffffffffffffffffffffffffffffff16815260200190815260200160002060008373ffffffffffffffffffffffffffffffffffffffff1673ffffffffffffffffffffffffffffffffffffffff16815260200190815260200160002060009054906101000a900460ff16905092915050565b6000634906490660e01b7bffffffffffffffffffffffffffffffffffffffffffffffffffffffff1916827bffffffffffffffffffffffffffffffffffffffffffffffffffffffff1916148061084c575061084b82610fff565b5b9050919050565b60008061085f836110e1565b9050600073ffffffffffffffffffffffffffffffffffffffff168173ffffffffffffffffffffffffffffffffffffffff16036108d257826040517f7e2732890000000000000000000000000000000000000000000000000000000081526004016108c99190611bc3565b60405180910390fd5b80915050919050565b60006004600083815260200190815260200160002060009054906101000a900473ffffffffffffffffffffffffffffffffffffffff169050919050565b600033905090565b61092d838383600161111e565b505050565b60008061093e846110e1565b9050600073ffffffffffffffffffffffffffffffffffffffff168373ffffffffffffffffffffffffffffffffffffffff16146109805761097f8184866112e3565b5b600073ffffffffffffffffffffffffffffffffffffffff168173ffffffffffffffffffffffffffffffffffffffff1614610a11576109c260008560008061111e565b6001600360008373ffffffffffffffffffffffffffffffffffffffff1673ffffffffffffffffffffffffffffffffffffffff168152602001908152602001600020600082825403925050819055505b600073ffffffffffffffffffffffffffffffffffffffff168573ffffffffffffffffffffffffffffffffffffffff1614610a94576001600360008773ffffffffffffffffffffffffffffffffffffffff1673ffffffffffffffffffffffffffffffffffffffff168152602001908152602001600020600082825401925050819055505b846002600086815260200190815260200160002060006101000a81548173ffffffffffffffffffffffffffffffffffffffff021916908373ffffffffffffffffffffffffffffffffffffffff160217905550838573ffffffffffffffffffffffffffffffffffffffff168273ffffffffffffffffffffffffffffffffffffffff167fddf252ad1be2c89b69c2b068fc378daa952ba7f163c4a11628f55a4df523b3ef60405160405180910390a4809150509392505050565b600073ffffffffffffffffffffffffffffffffffffffff168273ffffffffffffffffffffffffffffffffffffffff1603610bbd57816040517f5b08ba18000000000000000000000000000000000000000000000000000000008152600401610bb49190611aad565b60405180910390fd5b80600560008573ffffffffffffffffffffffffffffffffffffffff1673ffffffffffffffffffffffffffffffffffffffff16815260200190815260200160002060008473ffffffffffffffffffffffffffffffffffffffff1673ffffffffffffffffffffffffffffffffffffffff16815260200190815260200160002060006101000a81548160ff0219169083151502179055508173ffffffffffffffffffffffffffffffffffffffff168373ffffffffffffffffffffffffffffffffffffffff167f17307eab39ab6107e8899845ad3d59bd9653f200f220920489ca2b5937696c3183604051610cae919061193c565b60405180910390a3505050565b60008373ffffffffffffffffffffffffffffffffffffffff163b1115610e6c578273ffffffffffffffffffffffffffffffffffffffff1663150b7a02610cff610918565b8685856040518563ffffffff1660e01b8152600401610d2194939291906120a2565b6020604051808303816000875af1925050508015610d5d57506040513d601f19601f82011682018060405250810190610d5a9190612103565b60015b610de1573d8060008114610d8d576040519150601f19603f3d011682016040523d82523d6000602084013e610d92565b606091505b506000815103610dd957836040517f64a0ae92000000000000000000000000000000000000000000000000000000008152600401610dd09190611aad565b60405180910390fd5b805181602001fd5b63150b7a0260e01b7bffffffffffffffffffffffffffffffffffffffffffffffffffffffff1916817bffffffffffffffffffffffffffffffffffffffffffffffffffffffff191614610e6a57836040517f64a0ae92000000000000000000000000000000000000000000000000000000008152600401610e619190611aad565b60405180910390fd5b505b50505050565b6060610e7d82610853565b506000600660008481526020019081526020016000208054610e9e90611f6e565b80601f0160208091040260200160405190810160405280929190818152602001828054610eca90611f6e565b8015610f175780601f10610eec57610100808354040283529160200191610f17565b820191906000526020600020905b815481529060010190602001808311610efa57829003601f168201915b505050505090506000610f286113a7565b90506000815103610f3d578192505050610f80565b600082511115610f72578082604051602001610f5a92919061216c565b60405160208183030381529060405292505050610f80565b610f7b846113be565b925050505b919050565b610f9f828260405180602001604052806000815250611427565b5050565b80600660008481526020019081526020016000209081610fc3919061233c565b507ff8e1a15aba9398e019f0b49df1a4fde98ee17ae345cb5f6b5e2c27f5033e8ce782604051610ff39190611bc3565b60405180910390a15050565b60007f80ac58cd000000000000000000000000000000000000000000000000000000007bffffffffffffffffffffffffffffffffffffffffffffffffffffffff1916827bffffffffffffffffffffffffffffffffffffffffffffffffffffffff191614806110ca57507f5b5e139f000000000000000000000000000000000000000000000000000000007bffffffffffffffffffffffffffffffffffffffffffffffffffffffff1916827bffffffffffffffffffffffffffffffffffffffffffffffffffffffff1916145b806110da57506110d982611443565b5b9050919050565b60006002600083815260200190815260200160002060009054906101000a900473ffffffffffffffffffffffffffffffffffffffff169050919050565b80806111575750600073ffffffffffffffffffffffffffffffffffffffff168273ffffffffffffffffffffffffffffffffffffffff1614155b1561128b57600061116784610853565b9050600073ffffffffffffffffffffffffffffffffffffffff168373ffffffffffffffffffffffffffffffffffffffff16141580156111d257508273ffffffffffffffffffffffffffffffffffffffff168173ffffffffffffffffffffffffffffffffffffffff1614155b80156111e557506111e3818461075e565b155b1561122757826040517fa9fbf51f00000000000000000000000000000000000000000000000000000000815260040161121e9190611aad565b60405180910390fd5b811561128957838573ffffffffffffffffffffffffffffffffffffffff168273ffffffffffffffffffffffffffffffffffffffff167f8c5be1e5ebec7d5bd14f71427d1e84f3dd0314c0f7b2291e5b200ac8c7c3b92560405160405180910390a45b505b836004600085815260200190815260200160002060006101000a81548173ffffffffffffffffffffffffffffffffffffffff021916908373ffffffffffffffffffffffffffffffffffffffff16021790555050505050565b6112ee8383836114ad565b6113a257600073ffffffffffffffffffffffffffffffffffffffff168373ffffffffffffffffffffffffffffffffffffffff160361136357806040517f7e27328900000000000000000000000000000000000000000000000000000000815260040161135a9190611bc3565b60405180910390fd5b81816040517f177e802f00000000000000000000000000000000000000000000000000000000815260040161139992919061240e565b60405180910390fd5b505050565b606060405180602001604052806000815250905090565b60606113c982610853565b5060006113d46113a7565b905060008151116113f4576040518060200160405280600081525061141f565b806113fe8461156e565b60405160200161140f92919061216c565b6040516020818303038152906040525b915050919050565b611431838361163c565b61143e6000848484610cbb565b505050565b60007f01ffc9a7000000000000000000000000000000000000000000000000000000007bffffffffffffffffffffffffffffffffffffffffffffffffffffffff1916827bffffffffffffffffffffffffffffffffffffffffffffffffffffffff1916149050919050565b60008073ffffffffffffffffffffffffffffffffffffffff168373ffffffffffffffffffffffffffffffffffffffff161415801561156557508273ffffffffffffffffffffffffffffffffffffffff168473ffffffffffffffffffffffffffffffffffffffff1614806115265750611525848461075e565b5b8061156457508273ffffffffffffffffffffffffffffffffffffffff1661154c836108db565b73ffffffffffffffffffffffffffffffffffffffff16145b5b90509392505050565b60606000600161157d84611735565b01905060008167ffffffffffffffff81111561159c5761159b611c54565b5b6040519080825280601f01601f1916602001820160405280156115ce5781602001600182028036833780820191505090505b509050600082602001820190505b600115611631578080600190039150507f3031323334353637383961626364656600000000000000000000000000000000600a86061a8153600a858161162557611624612437565b5b049450600085036115dc575b819350505050919050565b600073ffffffffffffffffffffffffffffffffffffffff168273ffffffffffffffffffffffffffffffffffffffff16036116ae5760006040517f64a0ae920000000000000000000000000000000000000000000000000000000081526004016116a59190611aad565b60405180910390fd5b60006116bc83836000610932565b9050600073ffffffffffffffffffffffffffffffffffffffff168173ffffffffffffffffffffffffffffffffffffffff16146117305760006040517f73c6ac6e0000000000000000000000000000000000000000000000000000000081526004016117279190611aad565b60405180910390fd5b505050565b600080600090507a184f03e93ff9f4daa797ed6e38ed64bf6a1f0100000000000000008310611793577a184f03e93ff9f4daa797ed6e38ed64bf6a1f010000000000000000838161178957611788612437565b5b0492506040810190505b6d04ee2d6d415b85acef810000000083106117d0576d04ee2d6d415b85acef810000000083816117c6576117c5612437565b5b0492506020810190505b662386f26fc1000083106117ff57662386f26fc1000083816117f5576117f4612437565b5b0492506010810190505b6305f5e1008310611828576305f5e100838161181e5761181d612437565b5b0492506008810190505b612710831061184d57612710838161184357611842612437565b5b0492506004810190505b60648310611870576064838161186657611865612437565b5b0492506002810190505b600a831061187f576001810190505b80915050919050565b6000604051905090565b600080fd5b600080fd5b60007fffffffff0000000000000000000000000000000000000000000000000000000082169050919050565b6118d18161189c565b81146118dc57600080fd5b50565b6000813590506118ee816118c8565b92915050565b60006020828403121561190a57611909611892565b5b6000611918848285016118df565b91505092915050565b60008115159050919050565b61193681611921565b82525050565b6000602082019050611951600083018461192d565b92915050565b600081519050919050565b600082825260208201905092915050565b60005b83811015611991578082015181840152602081019050611976565b60008484015250505050565b6000601f19601f8301169050919050565b60006119b982611957565b6119c38185611962565b93506119d3818560208601611973565b6119dc8161199d565b840191505092915050565b60006020820190508181036000830152611a0181846119ae565b905092915050565b6000819050919050565b611a1c81611a09565b8114611a2757600080fd5b50565b600081359050611a3981611a13565b92915050565b600060208284031215611a5557611a54611892565b5b6000611a6384828501611a2a565b91505092915050565b600073ffffffffffffffffffffffffffffffffffffffff82169050919050565b6000611a9782611a6c565b9050919050565b611aa781611a8c565b82525050565b6000602082019050611ac26000830184611a9e565b92915050565b611ad181611a8c565b8114611adc57600080fd5b50565b600081359050611aee81611ac8565b92915050565b60008060408385031215611b0b57611b0a611892565b5b6000611b1985828601611adf565b9250506020611b2a85828601611a2a565b9150509250929050565b600080600060608486031215611b4d57611b4c611892565b5b6000611b5b86828701611adf565b9350506020611b6c86828701611adf565b9250506040611b7d86828701611a2a565b9150509250925092565b600060208284031215611b9d57611b9c611892565b5b6000611bab84828501611adf565b91505092915050565b611bbd81611a09565b82525050565b6000602082019050611bd86000830184611bb4565b92915050565b611be781611921565b8114611bf257600080fd5b50565b600081359050611c0481611bde565b92915050565b60008060408385031215611c2157611c20611892565b5b6000611c2f85828601611adf565b9250506020611c4085828601611bf5565b9150509250929050565b600080fd5b600080fd5b7f4e487b7100000000000000000000000000000000000000000000000000000000600052604160045260246000fd5b611c8c8261199d565b810181811067ffffffffffffffff82111715611cab57611caa611c54565b5b80604052505050565b6000611cbe611888565b9050611cca8282611c83565b919050565b600067ffffffffffffffff821115611cea57611ce9611c54565b5b611cf38261199d565b9050602081019050919050565b82818337600083830152505050565b6000611d22611d1d84611ccf565b611cb4565b905082815260208101848484011115611d3e57611d3d611c4f565b5b611d49848285611d00565b509392505050565b600082601f830112611d6657611d65611c4a565b5b8135611d76848260208601611d0f565b91505092915050565b60008060008060808587031215611d9957611d98611892565b5b6000611da787828801611adf565b9450506020611db887828801611adf565b9350506040611dc987828801611a2a565b925050606085013567ffffffffffffffff811115611dea57611de9611897565b5b611df687828801611d51565b91505092959194509250565b600067ffffffffffffffff821115611e1d57611e1c611c54565b5b611e268261199d565b9050602081019050919050565b6000611e46611e4184611e02565b611cb4565b905082815260208101848484011115611e6257611e61611c4f565b5b611e6d848285611d00565b509392505050565b600082601f830112611e8a57611e89611c4a565b5b8135611e9a848260208601611e33565b91505092915050565b60008060408385031215611eba57611eb9611892565b5b6000611ec885828601611adf565b925050602083013567ffffffffffffffff811115611ee957611ee8611897565b5b611ef585828601611e75565b9150509250929050565b60008060408385031215611f1657611f15611892565b5b6000611f2485828601611adf565b9250506020611f3585828601611adf565b9150509250929050565b7f4e487b7100000000000000000000000000000000000000000000000000000000600052602260045260246000fd5b60006002820490506001821680611f8657607f821691505b602082108103611f9957611f98611f3f565b5b50919050565b6000606082019050611fb46000830186611a9e565b611fc16020830185611bb4565b611fce6040830184611a9e565b949350505050565b7f4e487b7100000000000000000000000000000000000000000000000000000000600052601160045260246000fd5b600061201082611a09565b91507fffffffffffffffffffffffffffffffffffffffffffffffffffffffffffffffff820361204257612041611fd6565b5b600182019050919050565b600081519050919050565b600082825260208201905092915050565b60006120748261204d565b61207e8185612058565b935061208e818560208601611973565b6120978161199d565b840191505092915050565b60006080820190506120b76000830187611a9e565b6120c46020830186611a9e565b6120d16040830185611bb4565b81810360608301526120e38184612069565b905095945050505050565b6000815190506120fd816118c8565b92915050565b60006020828403121561211957612118611892565b5b6000612127848285016120ee565b91505092915050565b600081905092915050565b600061214682611957565b6121508185612130565b9350612160818560208601611973565b80840191505092915050565b6000612178828561213b565b9150612184828461213b565b91508190509392505050565b60008190508160005260206000209050919050565b60006020601f8301049050919050565b600082821b905092915050565b6000600883026121f27fffffffffffffffffffffffffffffffffffffffffffffffffffffffffffffffff826121b5565b6121fc86836121b5565b95508019841693508086168417925050509392505050565b6000819050919050565b600061223961223461222f84611a09565b612214565b611a09565b9050919050565b6000819050919050565b6122538361221e565b61226761225f82612240565b8484546121c2565b825550505050565b600090565b61227c61226f565b61228781848461224a565b505050565b5b818110156122ab576122a0600082612274565b60018101905061228d565b5050565b601f8211156122f0576122c181612190565b6122ca846121a5565b810160208510156122d9578190505b6122ed6122e5856121a5565b83018261228c565b50505b505050565b600082821c905092915050565b6000612313600019846008026122f5565b1980831691505092915050565b600061232c8383612302565b9150826002028217905092915050565b61234582611957565b67ffffffffffffffff81111561235e5761235d611c54565b5b6123688254611f6e565b6123738282856122af565b600060209050601f8311600181146123a65760008415612394578287015190505b61239e8582612320565b865550612406565b601f1984166123b486612190565b60005b828110156123dc578489015182556001820191506020850194506020810190506123b7565b868310156123f957848901516123f5601f891682612302565b8355505b6001600288020188555050505b505050505050565b60006040820190506124236000830185611a9e565b6124306020830184611bb4565b9392505050565b7f4e487b7100000000000000000000000000000000000000000000000000000000600052601260045260246000fdfea264697066735822122057a43edcd26495e9524448fb4468c6ee0d8ab60d88e14b1eb2257965086705c964736f6c63430008140033",
  "linkReferences": {},
  "deployedLinkReferences": {}
}